:020000040800F2
:1000000078060020910100087903000871030008B8
:10001000750300084B020008F90400080000000006
:100020000000000000000000000000009D03000828
:100030004F020008000000007B030008890400084C
:10004000AB010008AB010008AB010008AB010008E0
:10005000AB010008AB010008AB010008AB010008D0
:10006000AB010008AB010008AB010008AB010008C0
:10007000AB010008AB010008AB010008AB010008B0
:10008000AB010008AB010008AB010008AB010008A0
:10009000AB010008AB010008AB010008AB01000890
:1000A000AB010008AB010008AB010008AB01000880
:1000B000AB010008AB010008AB010008AB01000870
:1000C000AB010008AB010008AB010008AB01000860
:1000D000AB010008AB010008AB010008AB01000850
:1000E000AB010008AB010008AB01000800F002F80A
:1000F00000F03AF80AA090E8000C82448344AAF188
:100100000107DA4501D100F02FF8AFF2090EBAE885
:100110000F0013F0010F18BFFB1A43F0010318473B
:100120004C0500006C050000103A24BF78C878C167
:10013000FAD8520724BF30C830C144BF04680C60ED
:10014000704700000023002400250026103A28BF35
:1001500078C1FBD8520728BF30C148BF0B60704739
:100160001FB51FBD10B510BD00F035F81146FFF7E3
:10017000F7FF00F04DFA00F053F803B4FFF7F2FF79
:1001800003BC00F05BF8000080F3088870470000B3
:100190000948804709480047FEE7FEE7FEE7FEE71B
:1001A000FEE7FEE7FEE7FEE7FEE7FEE70448054957
:1001B000054A064B7047000099040008ED0000084E
:1001C00078000020780600207802002078020020C5
:1001D000704770477047754600F02CF8AE46050032
:1001E0006946534620F00700854618B020B5FFF752
:1001F000DDFFBDE820404FF000064FF000074FF054
:1002000000084FF0000B21F00701AC46ACE8C00934
:10021000ACE8C009ACE8C009ACE8C0098D4670473D
:1002200010B50446AFF300802046BDE81040FFF74C
:10023000A4BF0000004870471400002001491820A6
:10024000ABBEFEE726000200704700BFFEE7704726
:100250002DE9F0410246002500260020002300245D
:10026000002791F803C00CF00F0591F803C00CF0C3
:10027000100CBCF1000F03D091F802C04CEA050548
:1002800091F800C0BCF1000F31D0146800202BE0C1
:100290004FF0010C0CFA00F3B1F800C00CEA0306B1
:1002A0009E4220D183004FF00F0C0CFA03F7BC43A1
:1002B00005FA03FC4CEA040491F803C0BCF1280FD2
:1002C00006D14FF0010C0CFA00FCC2F814C00AE091
:1002D00091F803C0BCF1480F05D14FF0010C0CFAA6
:1002E00000FCC2F810C0401C0828D1D31460B1F83B
:1002F00000C0BCF1FF0F34DD546800202EE000F197
:10030000080C4FF0010808FA0CF3B1F800C00CEA31
:1003100003069E4221D183004FF00F0C0CFA03F725
:10032000BC4305FA03FC4CEA040491F803C0BCF199
:10033000280F05D100F1080C08FA0CF8C2F8148057
:1003400091F803C0BCF1480F07D100F1080C4FF041
:10035000010808FA0CF8C2F81080401C0828CED317
:100360005460BDE8F0810AB1016100E0416170476D
:1003700000BFFEE700BFFEE77047704729B1064A9D
:1003800092690243044B9A6104E0034A92698243F2
:10039000014B9A617047000000100240704710B591
:1003A00000F002F810BD00000CB500200190009094
:1003B0003348006840F480303149086000BF30485D
:1003C000006800F4003000900198401C01900098F3
:1003D00018B90198B0F5A06FF1D12948006800F470
:1003E000003010B10120009001E000200090009842
:1003F000012843D12348006840F0100021490860DB
:100400000846006820F0030008600846006840F0D5
:10041000020008601A484068194948600846406868
:1004200048600846406840F480604860084640687C
:1004300020F47C1048600846406840F4E8104860AA
:100440000846006840F08070086000BF0C480068F3
:1004500000F000700028F9D00948406820F003003F
:10046000074948600846406840F00200486000BF05
:100470000348406800F00C000828F9D10CBD0000CA
:10048000001002400020024002480068401C014960
:10049000086070470000002010B51348006840F065
:1004A00001001149086008464068104908400E499B
:1004B0004860084600680E4908400B490860084635
:1004C000006820F4802008600846406820F4FE00A0
:1004D00048604FF41F008860FFF761FF4FF0006035
:1004E0000449086010BD0000001002400000FFF841
:1004F000FFFFF6FE08ED00E000BFFEE74FF0E02052
:10050000006920F004004FF0E021086142F2283039
:1005100048610846006940F003000861704710B563
:10052000044603E04FF47A7000F005F8201EA4F1B1
:100530000104F7D110BD10B5034600F009F80446D8
:1005400000BF00F005F8001B9842FAD310BD000070
:100550004FF0E02040694FF0E0218969401A4FF4E4
:100560007A7148434FF0E0214969B0FBF1F004494A
:10057000096801EB4102C2EBC11100EBC1007047F9
:100580000000002010B5044614B16C2C1AD102E012
:1005900000BF6C2400BF0D480068142801D800205B
:1005A00010BD00BF00211020FFF7E8FE08490868D1
:1005B000FFF7EAFD064840680649086008460068FB
:1005C000804700BF00BF0020EAE700000C000020C9
:1005D000003000080400002008B501211020FFF7BA
:1005E000CDFE10208DF803004002ADF8000003207E
:1005F0008DF8020069460548FFF72AFE00224FF4F5
:1006000000510248FFF7AFFE08BD00000010014096
:100610000024FFF773FFFFF7DFFF1FE06420FFF701
:100620007EFF0F4801780068401C0D4A106001F001
:10063000010030B900224FF400510A48FFF793FE41
:1006400004E0012251030748FFF78DFE06480068C9
:10065000401C054908602046FFF794FFDEE70000D4
:1006600010000020001001400C0000208C06000843
:10067000000000201400000028010008A006000867
:10068000140000206406000044010008000000007F
:10069000000000000000000000000000000000005A
:04000005080000ED02
:00000001FF
