:020000040800F2
:1030000058110020013100081D440008193F000834
:10301000F14300081D3B0008E157000800000000D4
:1030200000000000000000000000000091550008B2
:10303000D93C0008000000004D4F000871570008FF
:103040001B3100081B3100081B3100081B31000830
:103050001B3100081B3100081B3100081B31000820
:103060001B3100081B3100081B3100081B31000810
:103070001B310008213B00081B3100081B310008F0
:10308000613B00081B3100081B3100081B310008A0
:103090001B3100081B3100081B3100081B310008E0
:1030A0001B3100081B3100081B3100081B310008D0
:1030B0001B3100081B3100081B3100081B310008C0
:1030C0001B3100081B3100081B3100081B310008B0
:1030D0001B3100081B3100081B3100081B310008A0
:1030E0001B3100081B3100081B310008DFF80CD031
:1030F00000F012FC00480047A57900085811002094
:103100000648804706480047FEE7FEE7FEE7FEE781
:10311000FEE7FEE7FEE7FEE7FEE7FEE78157000871
:10312000ED3000080649074A0868504343F2390267
:10313000104408604008704701490860704700006B
:10314000040200206D4EC64140EA01039B0703D0F4
:1031500009E008C9121F08C0042AFAD203E011F8D6
:10316000013B00F8013B521EF9D27047D2B201E098
:1031700000F8012B491EFBD270470022F6E710B57C
:1031800013460A4604461946FFF7F0FF204610BDD5
:10319000F0B480EA0102D40F4200B2EB410F02D238
:1031A0000246084611464A0042D0C30DDDB2C1F3C3
:1031B000C752AD1A202D35DAC1F3160141F40002D1
:1031C00004B15242C5F1200602FA06F12A41104428
:1031D000B3EBD05F23D0C4B1012DA0EBC35009DC09
:1031E000F0BC4FF0004202EAC352DBB200F500002F
:1031F00000F006BB400000F1807000EBC350A0F16E
:10320000807040EAD170490009E0490841EAC07184
:10321000A0EBC35000F50000400800EBC350F0BC29
:1032200000F0E5BA6142012202EB4101001BF6E722
:10323000F0BC704781F00041AAE780F00040A7E7AA
:1032400080EA010210B502F00043400022D04A009B
:103250001FD0010E01EB1261C0F35600C2F35602FB
:1032600040F4000042F40002A0FB022000047F3979
:10327000140400D0401C50EA124001D44000491E02
:10328000C2B20C0604EBD010401C4008802A02D0C9
:1032900003E0002010BD20F00100002900DA00202A
:1032A000184310BD30B480EA010202F0004530F04E
:1032B000004221F0004013D090B1C30DD40DC2F3F1
:1032C0001601C0F31600E41A41F4000140F40002B4
:1032D0007D34914201D3641C00E04900002C02DAE5
:1032E00030BC002070474FF400000023914201D30E
:1032F000891A034340084FEA4101F7D151B1914285
:1033000002D14FF0004105E002D24FF0010101E08F
:103310006FF0010103EBC450284430BC00F067BAE1
:103320002DE9FE4F804681EA0300C00F0C46009055
:1033300021F0004123F00045B8EB0200A94105D27D
:103340004046214690461C460B46024623F000406C
:10335000104347D0270DC7F30A00C3F30A51029068
:10336000401A019040286BDAC3F3130040F4801B2D
:103370000098924620B10023D2EB030A63EB0B0BBB
:1033800001985946C0F14002504600F0FFF9064648
:103390000D4650465946019A00F017FA10EB080006
:1033A0006141002487EA115284EAE7731A4340D04E
:1033B000009A62B3019A012A4FEA075215DC001BFA
:1033C00061EB02014FF0004202EA0752CDE90042F0
:1033D000001C41F5801132462B4600F04EFA03B036
:1033E000BDE8F08F40462146F9E7001B61EB020182
:1033F000001C41F5801300185B412018A2F500174E
:1034000047EB030140EAD570B6196D4111E06D0834
:103410004FEA360645EAC0754FEA0752001B61EBDA
:103420000201001C41F5801149084FEA30000019E3
:10343000514132462B4603B0BDE8F04F00F00EBAC2
:103440000098012240000023D0EB020263EBE073FE
:10345000009821464FEAE074B8EB000061EB0401EC
:10346000E9E783F000435BE781F0004158E72DE98D
:10347000FE4F81EA030404F0004421F0004100946F
:103480004FF0000B23F0004350EA01045ED052EAF3
:1034900003045BD0C3F30A54C1F30A552C44A4F2CD
:1034A000F3340194A0FB0254C1F3130141F48011E1
:1034B000C3F3130343F4801301FB024400FB034EE8
:1034C000840A970A44EA815447EA8357A4FB0768B1
:1034D00002958D0A05FB07854FEA932C04FB0C54DB
:1034E0002705029D4FEA065847EA1637B5EB08054F
:1034F0006EEB070C870E920E47EA811742EA8312A1
:10350000A7FB0201B6EB0B0164EB00042B0D43EAB1
:103510000C335E1844EB1C50DA465146E7FB0201BF
:10352000C5F313044FEA0B3343EA14534FEA043252
:10353000019C43EA0603A4F10C040294009CCDE92B
:1035400000B400F09AF903B0BDE8F08F0020014606
:10355000F9E72DE9F04D81EA030404F0004B21F076
:10356000004514464FF0000A23F0004150EA0502DE
:1035700020D054EA01021DD0C5F30A570246C5F314
:103580001303C1F31300C1F30A5640F4801543F44A
:103590008013A7EB0608101BD64608F2FD3873EB24
:1035A000050002D308F1010801E092185B41B8F16F
:1035B000000F03DA00200146BDE8F08D00204FF433
:1035C0008011064684460EE0171B73EB050705D3F2
:1035D000121B63EB050306434CEA010C49084FEA52
:1035E000300092185B4150EA0107EDD152EA030026
:1035F00012D082EA040083EA0501084305D0101BBB
:10360000AB4106D20122002306E000224FF0004326
:1036100002E06FF0010253101AEB06004CEB085168
:1036200010EB0A0041EB0B01BDE8F04D00F016B9BC
:10363000C10F80EAE0700844CA079623002100F019
:10364000DFB896230022114600F0DAB80EB5C10F9C
:1036500080EAE0700844CA07002140F233438DE855
:103660000E000A460B4600F008F903B000BD00F05A
:10367000004220F00040C10DC0F3160040F40000ED
:103680007F2901DA00207047962903DCC1F19601F9
:10369000C84001E096398840002AF4D04042704783
:1036A00020F00040C10DC0F3160040F400007F2957
:1036B00001DA00207047962903DCC1F19601C84069
:1036C000704796398840704770B5C1F30A5201F0CF
:1036D00000450024C1F3130140F2FF3341F480118F
:1036E0009A4201DA002070BD40F233439A42A2F2BE
:1036F000334203DC524200F058F800E090402C4383
:10370000F1D0404270BD00F0004230F000400AD0DD
:10371000C10D01F56071C0F3160042EA0151C20803
:1037200040071143704700200146704701F00043F5
:1037300030B421F0004150EA010206D00A0DA2F592
:103740006072C1F31301002A02DC30BC0020704714
:10375000440F44EAC104C100E01830BC00EBC25081
:1037600000F045B8002801DBC0F10040002901DB72
:10377000C1F1004181427047002801DBC0F10040E7
:10378000002901DBC1F1004188427047202A04DB97
:10379000203A00FA02F1002070479140C2F1200364
:1037A00020FA03F3194390407047202A04DB203AA3
:1037B00021FA02F00021704721FA02F3D040C2F151
:1037C00020029140084319467047202A06DBCB1798
:1037D000203A41FA02F043EAE07306E041FA02F3CC
:1037E000D040C2F120029140084319467047002999
:1037F000A8BF7047401C490008BF20F00100704777
:1038000010B4B0FA80FC00FA0CF050EA010404BFD6
:1038100010BC704749B1CCF1200421FA04F411FA2C
:103820000CF118BF012121430843A3EB0C01CB1D70
:103830004FEA00614FEA102042BF002010BC7047E1
:1038400000EBC35010440029A4BF10BC7047401CBB
:10385000490008BF20F0010010BC704710B5141ECD
:1038600073F1000408DA401C41F1000192185B4139
:103870001A4301D120F0010010BD2DE9F04D924610
:103880009B4611B1B1FA81F202E0B0FA80F2203227
:103890009046FFF77BFF04460F4640EA0A0041EAE4
:1038A0000B0153465A46084313D0114653EA010010
:1038B00019D0C8F140025046FFF777FF05460E4683
:1038C000504659464246FFF761FF084305D00120A4
:1038D00004E020463946BDE8F08D0020054346EA65
:1038E000E0762C4337430A986305E40AA0EB08000E
:1038F0000022FD0A44EA47540A3002D5002001465E
:10390000E9E7010510196941DDE908450019694138
:10391000BDE8F04DA2E70000064C074D06E0E06868
:1039200040F0010394E8070098471034AC42F6D306
:10393000FFF7E0FB78C7000898C7000870B521F0D2
:10394000004303430CD0C1F30A550024D5EB040512
:1039500064EB0403D617AD1AB34102DB0020014625
:1039600070BD201841EB025170BD0EB540F23341DD
:1039700002910021CDE900110A460B46FFF77DFFB9
:1039800003B000BD70B58C1810F8015B15F007038B
:1039900001D110F8013B2A1106D110F8012B03E0E8
:1039A00010F8016B01F8016B5B1EF9D12B0705D4F0
:1039B0000023521E0DD401F8013BFAE710F8013B39
:1039C000CB1A921C03E013F8015B01F8015B521E55
:1039D000F9D5A142D8D3002070BD10B500F05AFB34
:1039E00000F006FCD22000F0CBFB00F055FC00B14B
:1039F00010BD002000F0C4FB00F04EFC00B1F7E762
:103A0000002000F0BDFB00F047FC00B1F0E700F043
:103A100019FC0A2002F061FC00F0EAFBD22000F061
:103A2000AFFB00F039FC00B1E2E7012000F0A8FB99
:103A300000F032FC00B1DBE73F2000F0A1FB00F01A
:103A40002BFC00B1D4E700F0FDFB0A2002F045FC9E
:103A500000F0CEFBD22000F093FB00F01DFC00B183
:103A6000C6E7022000F08CFB00F016FC00B1BFE7B7
:103A7000002000F085FB00F00FFC00B1B8E700F07B
:103A8000E1FB322002F029FC00BFB1E730B5A1B064
:103A900000F0AEFBD22000F073FB00F0FDFB08B19C
:103AA00021B030BD802000F06BFB00F0F5FB00B1D1
:103AB000F6E700F09DFBD32000F062FB00F0ECFB8A
:103AC00000B1EDE700240DE07F2094FBF0F008B991
:103AD000012000E00020054600F01CFB01A908556C
:103AE000601CC4B2802CEFDB00F0ACFB802201A98B
:103AF0000948FFF729FB00240AE0074830F81400C2
:103B0000642803DA0020044921F81400601CC4B2C0
:103B1000402CF2DB00BFC3E7D40A002000BFFEE761
:103B200010B54FF4007000F05BF890B14FF40070E6
:103B300000F03CF800220221064801F0D6FC0120EA
:103B4000054908700821054800F073F9082001F0C4
:103B5000FFFC10BD003001400801002000080140BA
:103B600010B54FF4001000F03BF8B8B14FF400105E
:103B700000F01CF800210A4800F0E5F900BF0949EF
:103B8000074800F0CBF90028F9D00548008840F438
:103B900000700349088000200349087010BD000030
:103BA00000540040840007000800002000F080510D
:103BB00011B10349086001E0024948607047000004
:103BC000040402400000024021B1026842F00102F8
:103BD000026004E002684FF6FE731A40026070470C
:103BE00001460020002201F0805313B1054B1A68F2
:103BF00001E0054B1A6802EA01030BB1012000E065
:103C00000020704700040240000002401AB103681F
:103C10000B43036002E003688B430360704710B5F9
:103C20000022026847F6F0739A430C6A8B682343BC
:103C30000C6923434C6923438C692343CC69234398
:103C40004C6A23438C6A23431A430260CB68436067
:103C50000B6883604B68C36010BD41607047000013
:103C60002DE9F04106460D4617461C46802C03D030
:103C700014B10020BDE8F081284601F069FC002164
:103C80001448FFF7A1FF13483038C6634763006B41
:103C900020F080000F4930390863802C04D1084699
:103CA000006B40F0800008630A483038006B20F455
:103CB0007060084930390863102D04D10846006B44
:103CC00040F4A060086301210248FFF77DFF012056
:103CD000D0E70000300002407047000010B50446F5
:103CE0004FF47A7090FBF4F009490968094A1268A8
:103CF000891A884209D200F087FF00F0F9FB0448D6
:103D0000006804490860012010BD0020FCE70000A5
:103D100004000020040100202DE9F04102460025A6
:103D20000026002000230024002791F803C00CF097
:103D30000F0591F803C00CF0100CBCF1000F03D07C
:103D400091F802C04CEA050591F800C0BCF1000FE3
:103D500031D0146800202BE04FF0010C0CFA00F376
:103D6000B1F800C00CEA03069E4220D183004FF058
:103D70000F0C0CFA03F7BC4305FA03FC4CEA0404ED
:103D800091F803C0BCF1280F06D14FF0010C0CFADA
:103D900000FCC2F814C00AE091F803C0BCF1480F5F
:103DA00005D14FF0010C0CFA00FCC2F810C0401C09
:103DB0000828D1D31460B1F800C0BCF1FF0F34DD86
:103DC000546800202EE000F1080C4FF0010808FABA
:103DD0000CF3B1F800C00CEA03069E4221D1830027
:103DE0004FF00F0C0CFA03F7BC4305FA03FC4CEA46
:103DF000040491F803C0BCF1280F05D100F1080CB0
:103E000008FA0CF8C2F8148091F803C0BCF1480F0E
:103E100007D100F1080C4FF0010808FA0CF8C2F8BD
:103E20001080401C0828CED35460BDE8F081416169
:103E30007047016170470AB1016100E0416170475C
:103E40002DE9F04188B004460D46164605950496C6
:103E50000D498868FFF757FC07460B48C0680A4AB7
:103E6000CDE900710290516804AB106805AA01F019
:103E700009F90598069004980790DDE90601C4E960
:103E8000000108B0BDE8F0811C0000202DE9F041E0
:103E900088B004460D461646059504960D49886877
:103EA000FFF731FC07460B48C0680A4ACDE90071AC
:103EB0000290516804AB106805AA01F0A5F90598B5
:103EC000069004980790DDE90601C4E9000108B0F6
:103ED000BDE8F081140100200CB505490968009186
:103EE000044909680191DDE90012C0E900120CBD26
:103EF00014000020180000200CB505490968009145
:103F0000044909680191DDE90012C0E900120CBD05
:103F10000C0100201001002000BFFEE770B5024632
:103F20000024002500230020958A138B1B0445EAFA
:103F3000030626F07F4404EA01068E4201D10120E7
:103F400000E0002070BD21B1828842F400628280CE
:103F500004E082884FF2FF731A40828070470000AD
:103F60002DE9F04385B004460D460026B1460427EE
:103F7000DFF8CC80A6884FF6C0700640684601F096
:103F800017F8DDF808802F48B8FBF0F01FFA80F929
:103F900046EA0906A68020884FF6FE710840208078
:103FA00000262949286888420CD828684000B8FBB8
:103FB000F0F087B2042F00DA04273E4309F1010034
:103FC000208427E0E8884BF6FF71884206D12868F4
:103FD00000EB4000B8FBF0F087B209E0286800EB86
:103FE000C00101EB0010B8FBF0F087B247F4804746
:103FF000C7F30B0008B947F0010747F40040064338
:104000004FF4967009FB00F04FF47A7190FBF1F0D9
:10401000401C2084A683208840F001002080268850
:104020004FF6F5300640A888698908430643268084
:10403000A88929890843208105B0BDE8F0830000E4
:1040400000127A0040420F00A086010010B5012046
:104050000F4908600E481438006820F0F0000C4941
:10406000143908600846006840F0300008600220FB
:104070000749086002F03DF901200549091F086061
:10408000022002F036F901200149086010BD00004D
:10409000140C014008B50121082000F079FF03202D
:1040A000ADF8000010208DF8030003208DF8020009
:1040B00069460548FFF730FE0120034910310860CA
:1040C0000220086008BD0000000C014010B501206E
:1040D0000F4908600E481438006820F0F0000C49C1
:1040E000143908600846006840F03000086002207B
:1040F0000749091F086002F0FCF801200449091F64
:104100000860022002F0F5F801200149086010BDA6
:10411000140C014070B5054600241848006820F0D2
:10412000F000164908600846006840F0800008600A
:10413000002619E00120114914310860022002F024
:10414000D8F801200D49103108606006040E0B48B4
:104150000830006800F0020008B1601CC4B2022000
:1041600002F0C7F8701CC6B2082EE3DB15B9FFF7E2
:10417000ADFF01E0FFF76AFF204670BD000C014073
:1041800070B504461948006820F0F000174908602F
:104190000846006840F03000086000251FE001205C
:1041A000124914310860022002F0A3F8E00920B19E
:1041B00002200E491031086003E002200B4914313F
:1041C00008606006040E022002F093F801200749FF
:1041D00010310860022002F08CF8681CC5B2082D6E
:1041E000DDDB012001491431086070BD000C014085
:1041F00010B51348006820F0F00011490860084627
:10420000006840F03000086002200D49103108605D
:1042100002F06FF801200A4910310860022002F014
:1042200068F8022006491431086002F062F80120A3
:10423000034914310860022002F05BF810BD000051
:10424000000C014010B51348006820F0F00011493F
:1042500008600846006840F03000086001200D4901
:1042600014310860022002F044F802200949143198
:10427000086002F03EF80120064910310860022073
:1042800002F037F8022003491031086002F031F8DB
:1042900010BD0000000C014010B51748006820F068
:1042A000F000154908600846006840F0800008608A
:1042B000022011491031086002F01BF801200E495C
:1042C00010310860022002F014F8022002F011F808
:1042D00009480830006800F00200012803D1FFF708
:1042E000B1FF012010BD01200349143108600220F4
:1042F00001F0FFFF0020F5E7000C014010B5044677
:1043000004211148FFF795FD08210F48FFF78FFDA5
:1043100021120E4801F0FBF800BF02210B4801F00A
:10432000EDF80028F9D02146084801F0F0F800BF68
:104330000221064801F0E2F80028F9D008210248DD
:10434000FFF777FD10BD000000080140003001407C
:1043500070B504460D4624B904210E48FFF767FDE9
:1043600003E004210B48FFF764FD08210948FFF72B
:104370005EFD2946084801F0CAF800BF0221064840
:1043800001F0BCF80028F9D008210248FFF751FDE0
:1043900070BD0000000801400030014030B5054606
:1043A0000C4623462A46054801680548006800F087
:1043B000B1FA034805600148046030BD18000020D0
:1043C00014000020F8B504460D4616462B4622463A
:1043D0000548009601680548006802F021FB034883
:1043E000046001480560F8BD100100200C010020A8
:1043F00000BFFEE7024A1060024A116070470000E9
:104400001400002018000020024A1060024A1160C7
:10441000704700000C0100201001002070470000D0
:1044200070B5002100230F22C47804B3154C246812
:1044300004F4E064C4F5E064210AC1F10403CA4055
:10444000447804FA03F184781440214309010E4CA6
:104450000678A155047804F01F050124AC400578C6
:104460006D11AD0005F1E025C5F8004109E00478C3
:1044700004F01F050124AC40044D0678761145F880
:10448000264070BD0CED00E000E400E080E100E0BB
:10449000024A0A400243024B1A60704780FFFF1F26
:1044A00008ED00E070B50346802B01DA402900DBFF
:1044B00070BDCC1701EB5474E4100C4D05EBC41423
:1044C000E45C0A46CD1701EB5575ED10A1EBC5066E
:1044D0000125B540AC430846CD1701EB5575ED10ED
:1044E000024E06EBC515EC5400BFE1E714020020B4
:1044F00010B54FF480610248FEF73FFE10BD00008A
:10450000140200202DE9F04786B005460E461446F9
:104510001F46DDF838804FF000096846FFF7DCFCE5
:10452000DDE90001CDE902013146284601F08EF8AF
:10453000002001F02FF8B8F5B47F01DD4FF4B47816
:10454000002001F033F8321929466846FFF778FC5D
:10455000DDE90001CDE90401DDE90401FFF74AFFCF
:104560003846FFF765F8814614E0484601F01EF82A
:10457000321929466846FFF763FCDDE90001CDE901
:104580000401DDE90401FFF709FF0C494846FEF785
:10459000FFFD81464046FFF74BF882464946FFF74C
:1045A000EBF8E2D328193146FFF7F8FEDDE9020106
:1045B000FFF720FF06B0BDE8F08700000000A04034
:1045C0002DE9F04306460F469046002544462BE071
:1045D000391B701900F0F0F9391B701B00F0ECF971
:1045E0003919701B00F0E8F93919701900F0E4F975
:1045F0007919301900F0E0F9791B301900F0DCF975
:10460000791B301B00F0D8F97919301B00F0D4F970
:104610006D1C05FB05F004FB040008FB1809B9F14B
:10462000000F01DD641E6D1E6000604308FB08F191
:104630008842CDDABDE8F0832DE9F84F06460F46F3
:1046400091469846C9F1010A4FF0010B4FEA490023
:104650004042009000244D4638E0BAF1000F05DBDF
:104660006D1E0098801C009000988244641C0BF121
:10467000020BDA4408F0010038B1391B701B00F05E
:104680009BF9791B301B00F097F908F0020038B154
:10469000791B301900F090F9391B701900F08CF972
:1046A00008F0040038B17919301900F085F939198A
:1046B000701900F081F908F0080038B13919701B41
:1046C00000F07AF97919301B00F076F9AC42C4DBBE
:1046D000BDE8F88F2DE9FF4F99B006460F46984682
:1046E0001B9800FB00F908FB08FA4FEA49001790F5
:1046F0004FEA4A001690002544460020159017986E
:10470000604314903919701900F056F93919701B6B
:1047100000F052F9391B701900F04EF9391B701B6B
:1047200000F04AF94846FEF791FF00225A4BCDE9C6
:104730000C01FEF79CFECDE9100109FB18A0FEF765
:1047400085FFCDE90E01DDE91023FEF7E9FDCDE996
:104750001201FEF7B9FF834626E06D1CDDE9150165
:1047600008441590BBF1000F03DA159850448344B8
:104770000AE0641E17991498401A149015980AEBD1
:1047800000011498081A83443919701900F014F9BB
:104790003919701B00F010F9391B701900F00CF971
:1047A000391B701B00F008F9DDE914108842D4DBD6
:1047B00009FB0AF0FEF74AFFCDE91001611E01FB7B
:1047C00009F1621E01FB02F0FEF740FFCDE90C018A
:1047D0002846FEF73BFF0022304BCDE90401FEF7EF
:1047E0009FFDCDE908012846FEF730FF00222B4B44
:1047F000CDE90001FEF794FDCDE904015046FEF736
:1048000025FFCDE90201DDE90423FEF730FECDE905
:104810000601DDE90823FEF72AFECDE90A01DDE9FC
:104820000C23FEF77DFDCDE90E01DDE91023FEF737
:1048300018FECDE91201FEF747FF834627E0641E0C
:1048400017991498401A1490BBF1000F04DD1498C6
:10485000A9EB000083440AE06D1CDDE91501084462
:1048600015901498A9EB0001159808448344391950
:10487000701900F0A1F83919701B00F09DF8391B70
:10488000701900F099F8391B701B00F095F8002C96
:10489000D5DC1DB0BDE8F08F0000D03F0000E03F48
:1048A0002DE9F04104460F46164604EB0608002C9D
:1048B00001DA002000E02046054604E0394628469B
:1048C00000F07AF86D1CB8F1800F01DA404600E084
:1048D0008020A842F2DCBDE8F0812DE9F0410746D6
:1048E0000C46164604EB0608002C01DA002000E016
:1048F0002046054604E02946384600F05DF86D1C68
:10490000B8F1400F01DA404600E04020A842F2DC56
:10491000BDE8F0812DE9FF4F83B081464FF0000ADA
:10492000D3460598A0EB090504990698461A1FFA84
:1049300089F00190049880B20090002D01DD0127DC
:1049400005E00DB9002702E04FF0FF376D42002E61
:1049500002DD4FF0010806E016B94FF0000802E052
:104960004FF0FF387642B54201DD2C4600E0344678
:104970000020029019E0DDE9001000F01DF8AA44C3
:10498000B344A24505DDAAEB040A0198384480B27D
:104990000190A34505DDABEB040B0098404480B2C9
:1049A00000900298401C80B20290611C02988842DC
:1049B000E1DD07B0BDE8F08F70B50346802B01DA6A
:1049C000402900DB70BDCC1701EB5474E4100C4D92
:1049D00005EBC414E45C0A46CD1701EB5575ED10E8
:1049E000A1EBC5060125B5402C430846CD1701EBC8
:1049F0005575ED10024E06EBC515EC5400BFE1E70E
:104A000014020020F0B504460D4616461F46A219B2
:104A10002B4629462046FFF77DFFEB19A219E9191D
:104A20002046FFF777FFEB19224629462046FFF77D
:104A300071FFEB19A219A0192946FFF76BFFF0BD12
:104A40002DE9F04105460E4617469846069C600043
:104A5000B84202DC6000404501DDBDE8F081022182
:104A600001FB1471CAB228193146FFF719FF02235E
:104A700003FB1473DAB206EB0803591E2819FFF77B
:104A80000FFF022000FB1480C2B231192846FFF745
:104A900024FF022303FB1483DAB23119EB19581EE9
:104AA000FFF71BFF3119281901232246FFF7C4FD28
:104AB0003119EA19121B501E02232246FFF7BCFDD2
:104AC00006EB0802121B511EEA19121B501E04238A
:104AD0002246FFF7B1FD06EB0802121B511E2819F2
:104AE00008232246FFF7A8FD00BFB6E72DE9F043F3
:104AF00004460D4616461F46DDE907893B46324609
:104B000029462046FFF706FF4B46424639463046C7
:104B1000FFF700FF2B46224649464046FFF7FAFEC4
:104B2000BDE8F08310B500BF2448008800F0020003
:104B30000028F9D121481838008840F480701F49B6
:104B40001839088000BF1E491C481838FFF7E6F9DD
:104B50000028F8D0782019490839088000BF194981
:104B600016481838FFF7DAF90028F8D04020134922
:104B70000839088000BF1349891C10481838FFF70E
:104B8000CDF90028F7D01048C06E00F0200078B9A9
:104B900000210D486C30FFF717F84FF480610A4888
:104BA0006C30FFF75AF8012107486C30FFF70CF81A
:104BB000012102481838FFF7C6F910BD185400400B
:104BC00001000300820007000000024010B5044607
:104BD00044F0A00003F050F810BD10B58D2003F094
:104BE0004BF8102003F048F8AF2003F045F810BD53
:104BF00010B58D2003F040F8142003F03DF8AF20ED
:104C000003F03AF810BD000010B54FF4806203497C
:104C10000348FEF799FAFFF785FF10BD1402002044
:104C20001406002010B504464FF480622146034864
:104C3000FEF78AFAFFF776FF10BD00001406002089
:104C400070B505460C46212003F016F8284603F0FF
:104C500013F8204603F010F870BD70B504462546E1
:104C6000E11704EB11710911A4EB0111C8B203F0B3
:104C700003F82546E11704EB1171C1F3071141F068
:104C8000100002F0F9FF70BD10B50446812002F05B
:104C9000F3FF204602F0F0FF10BD70B504460D464C
:104CA00044F0A40002F0E8FF45F0A60002F0E4FFA3
:104CB00070BD10B50446202002F0DEFF204602F051
:104CC000DBFF10BD70B505460C46222002F0D4FF74
:104CD000284602F0D1FF204602F0CEFF70BD10B58D
:104CE000044644F0B00002F0C7FF10BD10B5044602
:104CF00044F0400002F0C0FF10BDF0B5ADF2044D2D
:104D0000F02600274FF4806101A8FEF736FA022052
:104D1000FEF712FA002437E001A800EBC400C079C6
:104D200088BBFEF7FFF97F2190FBF1F201FB120037
:104D300000B201A921F83400FEF7F4F90546C017C6
:104D400005EB90608011A5EB801000B201A901EB8A
:104D5000C4014880002001A901EBC4018871FEF75D
:104D6000E1F90546C01705EB5070C010A5EBC00077
:104D7000401C00B201A901EBC4018880012001A9F7
:104D800001EBC401C871641C802CC5DB9AE030467D
:104D9000FEF7A4FF012807D17F1C06EB8600B8426E
:104DA00002DC0DF2044DF0BD002488E001A800EB08
:104DB000C400C07948BB002001A921F83400FEF7E7
:104DC000B1F90546C01705EB90608011A5EB801086
:104DD00000B201A901EBC4014880FEF7A3F9062146
:104DE00090FBF1F201FB1200401C00B201A901EBA3
:104DF000C4018880002001A901EBC4018871012051
:104E000001A901EBC401C87158E001A800EBC4007E
:104E10008079401C01A901EBC401887101A830F917
:104E200034007C2804DB002001A901EBC401C87117
:104E300001AD05EBC405B5F9023001AD35F93420FB
:104E400005EBC405B5F9021001AD35F93400FFF7E3
:104E500061FD01A800EBC400807901A901EBC40148
:104E6000B1F9041088420CD1002001A901EBC40162
:104E7000887101A830F83400401C00B201A921F863
:104E8000340001A800EBC400B0F90400062191FB36
:104E9000F0F001A931F934100844451E01AA02EBD3
:104EA000C402B2F9023001AA02EBC402B2F9021044
:104EB00001AA32F934002A46FFF72CFD641C802C2D
:104EC000FFF674AF63E72DE9F0473F251F26002763
:104ED0004FF001084FF01F094FF0010A00240CE0C9
:104EE000FFF706FB02F018FCFFF78EFE601C04467D
:104EF0005A2802D10024BDE8F087F1E72DE9F041FE
:104F00000027002415E0002510E000260BE03246C3
:104F10002946204600F03AFA7F1CB7F5487F01DBAE
:104F2000BDE8F081761C3C2EF1DB6D1C3C2DECDBEA
:104F3000641C0C2CE7DB00BFF2E710B50446C0216F
:104F400041EAC401C8B202F097FE10BD70470000EC
:104F500029B1064A52690243044B5A6104E0034AEC
:104F600052698243014B5A617047000000100240B1
:104F700029B1064AD2690243044BDA6104E0034ACC
:104F8000D2698243014BDA61704700000010024091
:104F900029B1064A92690243044B9A6104E0034A2C
:104FA00092698243014B9A617047000000100240F1
:104FB00030B500210022002400232D4D6D6805F03E
:104FC0000C0121B1042905D0082923D105E0294D80
:104FD000056022E0274D05601FE0254D6D6805F452
:104FE0007012234D6D6805F48034022505EB924262
:104FF0001CB9214D554305600BE01D4D6D6805F44E
:1050000000351DB11C4D5543056002E0194D554357
:10501000056002E0174D056000BF00BF144D6D68CC
:1050200005F0F0010909154D6B5C0568DD40456030
:105030000F4D6D6805F4E061090A104D6B5C456821
:10504000DD4085600A4D6D6805F46051C90A0B4D5D
:105050006B5C4568DD40C560054D6D6805F44041F9
:10506000890B074D6B5CC568B5FBF3F5056130BD79
:105070000010024000127A0000093D00F0010020FB
:10508000000200202DE9FF4F8BB092469B46DDE9E0
:105090001889DBF800100C98081A4043DAF8002051
:1050A0000B99521ADAF80030591A02FB01000A90E3
:1050B0000A98FEF7BDFA089002F05EFD0990FEF72F
:1050C00022FB04460D46DBF800200C99501AFEF72F
:1050D000BDFACDE90801DAF800200B99501AFEF765
:1050E000B5FACDE90601DDE9082300F0D7FF064651
:1050F0000F461A98002842D042464B463046394661
:10510000FEF70EF9CDE9000101F088F822462B46A2
:10511000CDE90201FEF7ABF9CDE906010B98FEF7E8
:1051200095FACDE90401DDE90623FEF7F9F8CDE9AA
:105130000801FEF7C9FACAF8000042464B4630465D
:105140003946FEF7EDF8CDE9000103F0F5F8224607
:105150002B46CDE90201FEF78AF9CDE906010C984C
:10516000FEF774FACDE90401DDE90623FEF7D8F86D
:10517000CDE90801FEF7A8FACBF8000041E042466D
:105180004B4630463946FEF76CF9CDE9000101F097
:1051900045F822462B46CDE90201FEF768F9CDE934
:1051A00006010B98FEF752FACDE90401DDE906236A
:1051B000FEF7B6F8CDE90801FEF786FACAF8000056
:1051C00042464B4630463946FEF74BF9CDE90001E1
:1051D00003F0B2F822462B46CDE90201FEF747F96B
:1051E000CDE906010C98FEF731FACDE90401DDE9BD
:1051F0000623FEF795F8CDE90801FEF765FACBF82E
:1052000000000FB0BDE8F08F2DE9FF4F8BB0924644
:105210009B46DDE91889DBF800100C98081A40431A
:10522000DAF800200B99521ADAF80030591A02FB0A
:1052300001000A900A98FEF7FBF9089002F0C2FC00
:105240000990FEF760FA04460D46DBF800200C9941
:10525000501AFEF7FBF9CDE90801DAF800200B99A6
:10526000501AFEF7F3F9CDE90601DDE9082300F055
:1052700015FF06460F461A98002842D042464B4674
:1052800030463946FEF74CF8CDE9000100F0C6FF84
:1052900022462B46CDE90201FEF7E9F8CDE90601E9
:1052A0000B98FEF7D3F9CDE90401DDE90623FEF7FB
:1052B00037F8CDE90801FEF707FACAF800004246C0
:1052C0004B4630463946FEF72BF8CDE9000103F096
:1052D00033F822462B46CDE90201FEF7C8F8CDE9A6
:1052E00006010C98FEF7B2F9CDE90401DDE90623C9
:1052F000FEF716F8CDE90801FEF7E6F9CBF8000055
:1053000041E042464B4630463946FEF7AAF8CDE921
:10531000000100F083FF22462B46CDE90201FEF793
:10532000A6F8CDE906010B98FEF790F9CDE9040146
:10533000DDE90623FDF7F4FFCDE90801FEF7C4F926
:10534000CAF8000042464B4630463946FEF789F817
:10535000CDE9000102F0F0FF22462B46CDE9020123
:10536000FEF785F8CDE906010C98FEF76FF9CDE957
:105370000401DDE90623FDF7D3FFCDE90801FEF7BF
:10538000A3F9CBF800000FB0BDE8F08F2DE9F04392
:105390008DB007460C46154600BFC4EB0410400014
:1053A0003C2190FBF1F0C7EB071100EB41094846A7
:1053B000FEF73EF98046012342461F213F2000F0C0
:1053C00051F91F22312101A8FEF73AFDDDE9010163
:1053D000CDE90B011F213F20DDE90B23FFF79AFAEE
:1053E00005EB450040003C2190FBF1F004EB44014B
:1053F00000EB41094846FEF71BF98046012342466F
:105400001F213F2000F02EF91F222A2101A8FEF7BC
:1054100017FDDDE90101CDE909011F213F20DDE98B
:105420000923FFF777FA05EB45014800FEF700F97D
:105430008046012342461F213F2000F013F91F221E
:10544000232101A8FEF7FCFCDDE90101CDE90701FC
:105450001F213F20DDE90723FFF75CFA002625E046
:10546000C6EB06114800FEF7E3F8804601234246EA
:105470001F213F2000F0F6F81F22222101A8FEF78D
:10548000DFFCDDE90101CDE905011F22272101A88B
:10549000FEF7D6FCDDE90101CDE90301DDE90323D7
:1054A000DDE90501FFF736FA701CC6B20C2ED7DB1A
:1054B00002221F213F20FFF783F81E221F213F20D9
:1054C000FFF77EF8FFF7A0FBFFF712F80DB0BDE87D
:1054D000F08321B1028842F04002028004E0028899
:1054E0004FF6BF731A40028070471AB183880B438E
:1054F000838002E083888B438380704702460020CC
:1055000013890B400BB1012000E00020704781811E
:10551000704710B50022028802F441520B884C8873
:1055200023438C882343CC8823430C8923434C8911
:1055300023438C892343CC8923431A430280838BE2
:105540004FF2FF74234083830B8A038210BD000057
:105550000E49098821F040010C4A1180082805D124
:105560001146098821F40061118007E0102805D157
:105570000649098841F40061044A118003490988F9
:1055800041F04001014A11807047000000300140A5
:10559000704700000149C860704700001C000020EF
:1055A0000149C86070470000140100202DE9F04750
:1055B000824600215046FEF7D5F802D10020014670
:1055C0000CE05046FEF79FF88046084A084BFDF76E
:1055D0004EFF06460022074BFDF7BBFF0446FEF7D1
:1055E000A5F805498860BDE8F08700006E861BF0CD
:1055F000F9210940008066401C0000202DE9F04799
:10560000824600215046FEF7ADF802D10020014647
:105610000CE05046FEF777F88046084A084BFDF745
:1056200026FF06460022074BFDF793FF0446FEF7D0
:105630007DF805498860BDE8F08700006E861BF0A4
:10564000F92109400080664014010020014A1060E1
:10565000516070471C000020014A10605160704783
:10566000140100202DE9F04106460F4614461D4660
:1056700039463046FFF7EAFF2846FFF78BFF204602
:10568000FFF794FFBDE8F08110B500F001F810BD00
:105690000CB50020019000903348006840F4803041
:1056A0003149086000BF3048006800F400300090C5
:1056B0000198401C0190009818B90198B0F5A06FAE
:1056C000F1D12948006800F4003010B101200090A9
:1056D00001E0002000900098012843D12348006891
:1056E00040F01000214908600846006820F00300DF
:1056F00008600846006840F0020008601A484068E8
:10570000194948600846406848600846406840F4C7
:10571000806048600846406820F47C104860084675
:10572000406840F4E81048600846006840F0807027
:10573000086000BF0C48006800F000700028F9D035
:105740000948406820F0030007494860084640685F
:1057500040F00200486000BF0348406800F00C00C1
:105760000828F9D10CBD00000010024000200240C2
:1057700002480068401C014908607047040000208E
:1057800010B51348006840F0010011490860084650
:105790004068104908400E494860084600680E49B4
:1057A00008400B4908600846006820F48020086023
:1057B0000846406820F4FE0048604FF41F008860EF
:1057C000FFF762FF4FF000600449086010BD000061
:1057D000001002400000FFF8FFFFF6FE08ED00E0B9
:1057E00000BFFEE7490050EAC12018BF04204A0D5F
:1057F00018BF40F0010040F2FF72B2EB515F08BFEA
:1058000040F00200012808BF052070472DE9F74F3E
:10581000144694B00021C4E902111599079121F0B2
:105820000045C9498D4206DC1599C4E9000117B04D
:105830000020BDE8F08FC549DFF814A3A9423CDD84
:105840000799C44E0029C44FC44A1599534619DD1F
:10585000FDF707FE554506D0C14AC24BFDF701FED4
:10586000C4E900010AE04FF0D352BE4BFDF7F9FD49
:1058700032463B46FDF7F5FDC4E9000117B00120B3
:10588000BDE8F08FFDF74CFD554506D0B44AB54B49
:10589000FDF746FDC4E900010AE04FF0D352B14BD9
:1058A000FDF73EFD32463B46FDF73AFDC4E90001F7
:1058B00017B04FF0FF30BDE8F08FAB49A942159902
:1058C00078DB21F0004183468846A84AA84BFDF7C3
:1058D000CEFD0022A74BFDF723FDFDF7F5FE099055
:1058E000FDF7B4FE06460F469C4A5346FDF7BFFD42
:1058F00043465A46FDF7B8FD80468A46984A994B7A
:1059000030463946FDF7B3FD2A0D01250B9242467C
:105910005346FDF7A9FD032DC4E9000139D00B98CA
:10592000C1F30A51401A05EB45111139814230DAB1
:105930009148C346784400EB0510CDF80CA00C90BC
:10594000D0E9002330463946FDF791FD02460B466B
:105950000491069058460399FDF783FD80468A46D8
:1059600002460B4658460399FDF77BFD049B069AB9
:10597000FDF777FD83460C9803913946D0E9022361
:105980003046FDF774FD5A46039BFDF76AFD6D1C1A
:10599000BDE707980028A2BF099817B0BDE8F08FAF
:1059A000616881F000416160099817B04042BDE82C
:1059B000F08FFFE784461598C1F31301C0F30A5036
:1059C000A0F2F5304FEA601800F01F06C6F1200083
:1059D000139000200690079041F4801E05206D462C
:1059E00076B1664A08EB00017A4452F8213002EBA6
:1059F0008101B3404A68139922FA01F1194305E085
:105A00005F4908EB0002794451F82210A1FB0E27F0
:105A1000A1FB0C131A449A4234BF0123002303EB69
:105A2000070A05EB8003D3E901B70F448F4234BF67
:105A30000121002193448B4411B1934502D903E025
:105A4000934501D2012100E00021C3E901B751448F
:105A500045F82010011EA0F10100C1DC0298059F4D
:105A600000F10050800F12900298DDE9035680008B
:105A7000FDF7ECFD834628460D91FDF776FF6FF0AC
:105A80001D02FDF75BFFCDE90E013046FDF76DFF0E
:105A90006FF03D02FDF752FF80468A463846FDF71B
:105AA00064FF6FF05D02FDF749FF0746424653462B
:105AB0001191FDF735FCDDE90E23FDF731FC5A4667
:105AC0000D9BFDF72DFC00250E465A4628460D9BE2
:105AD000FDF7C7FCDDE90E23FDF7C3FC4246534644
:105AE000FDF7BFFC3A46119BFDF7BEFCDFF898A01E
:105AF000244A5346FDF7BBFC07468846234A244BFD
:105B000031462846FDF7B3FC3A464346FDF708FC0C
:105B1000074688464FF0A842534631462846FDF7CF
:105B2000A6FC3A464346FDF7FBFB159A12F0004FE0
:105B300004D0129A81F0004152421292C4E900014D
:105B4000129817B0BDE8F08FFB21E93F7CD90240E5
:105B5000FB21F93F7370032E8A19A33B00004054C8
:105B60003163621A61B4D03DFB21394183C8C96DEC
:105B7000305FE43F0000E03F506D0000CC6C00005F
:105B8000AE6C0000182D4454FB21F93D3326A611BC
:105B9000460B113C2DE9FF4D21F0004807460C460D
:105BA000B8F1795F08DAFDF78FFD002801BF00200A
:105BB000324904B0BDE8F08D3A46234610461946F6
:105BC000FDF755FC054602462D480E460B460621BC
:105BD000784400F05DF82A463346FDF748FCDDE9DD
:105BE000022382468B4638462146FDF740FC044698
:105BF0000F4652465B4628463146FDF738FC2246A2
:105C00003B46FDF72EFC07468A464FF0FF322846FA
:105C10003146FDF793FE1B4A90450ADA3A46534651
:105C2000FDF71FFC04B00022BDE8F04D134BFDF75B
:105C30001BBC154A4245A8BFA8F500154FF000044B
:105C4000B8BF124D22462B46FDF70BFC0646884690
:105C500022462B4600200949FDF703FC04460D4669
:105C60003A46534630464146FDF7FBFB04B0224618
:105C70002B46BDE8F04DFDF7F7BB00000000F03FFC
:105C80007C6A00003333D33F0000E93F0000D23F7D
:105C90002DE9F0414F1E00EBC7010446D1E9000198
:105CA00015461E4637F006020DD02A463346FDF74C
:105CB000DEFB7F1E04EBC703D3E90023FDF730FBB7
:105CC00037F00602F1D1022F25D0042F13D0062F72
:105CD00018BFBDE8F0812A463346FDF7C8FBD4E97A
:105CE0000A23FDF71DFB2A463346FDF7C0FBD4E926
:105CF0000823FDF715FB2A463346FDF7B8FBD4E928
:105D00000623FDF70DFB2A463346FDF7B0FBD4E929
:105D10000423FDF705FB2A463346FDF7A8FBD4E92B
:105D20000223FDF7FDFA2A463346FDF7A0FBD4E92E
:105D30000023BDE8F041FDF7F3BA00002DE9FF4D67
:105D4000054621F0004084B00C46B0F1795F0BDAD3
:105D50002846FFF747FD042808BF00F071F82846E1
:105D600008B02146BDE8F08D2A460B461046FDF7E7
:105D70007EFB06460F462A462346FDF778FB804603
:105D800026488A4632463B4605217844FFF780FF85
:105D900083461098029160B3214A224B40465146F7
:105DA000FDF765FBCDE900015A4640465146029B8E
:105DB000FDF75DFB82468846DDE906014FF0FF32C4
:105DC000FDF7BCFD52464346FDF74BFB32463B46D2
:105DD000FDF74DFBDDE90623FDF743FBDDE900237D
:105DE000FDF73FFB08B02A462346BDE8F04DFDF71E
:105DF0003BBB0B465A4630463946FDF738FB084A4E
:105E0000084BFDF78DFA42465346FDF730FB08B0CC
:105E10002A462346BDE8F04DFDF782BAC26900006C
:105E2000495555555555C5BF0122FDF787BDFDF7AD
:105E300077BA0022134610461146FDF78ABB0000D0
:105E4000024A00201107FDF779BD000001FDFFFFA8
:105E500002E008C8121F08C1002AFAD17047704733
:105E6000002001E001C1121F002AFBD17047000091
:105E70000149086070470000100200202DE9F84F2A
:105E800004460D4621F0004000917349814211DC27
:105E90007249884201DC06D12CB120462946BDE872
:105EA000F84FFFF7C1BF6E48002DCCBF6D496E495A
:105EB000BDE8F88F6D49814211DD6D498142D8BF3F
:105EC0004FF0FF366DDD20462946FFF78BFC042896
:105ED00008BFFFF7B5FF20462946BDE8F88F6549A2
:105EE000654F25F00045814233DD6449814219DD6B
:105EF000002632464FF0804320462946FDF710FA2F
:105F000080468A46012220462946FDF717FD0022D9
:105F10003B46FDF7A6FA42465346FDF71AFB0446F8
:105F20000D463EE001260022BA463B462046294661
:105F3000FDF7F6F980460F460022534620462946D3
:105F4000FDF78FFA42463B46FDF703FB04460D463C
:105F500027E04B4981421BDDDFF828A10226002201
:105F6000534620462946FDF782FA00223B46FDF7BC
:105F7000D7F980460F460022534620462946FDF7B2
:105F800070FA42463B46FDF7E4FA04460D4608E047
:105F9000032622462B4600203B49FDF7DAFA044649
:105FA0000D4622462B4610461946FDF760FA8B46F1
:105FB000824602460B46FDF75AFA07460246334828
:105FC00088460B4606217844FFF762FE52465B4640
:105FD000FDF74DFA82462E488B463A464346052148
:105FE0007844FFF755FE3A464346FDF740FA02462D
:105FF0000B46002E504659460CDAFDF791F9224621
:106000002B46FDF734FA01B022462B46BDE8F04F8F
:10601000FDF72ABAFDF784F922462B46FDF727FA49
:106020001C4A7A4402EBC603D3E90023FDF719FAB0
:1060300022462B46FDF715FA174A7A4402EBC603AF
:10604000D3E90023FDF710FA009A002AB8BF81F0C7
:106050000041BDE8F88F0000000010440000F07F10
:10606000182D4454FB21F93FFB21F9BF0000DC3F10
:106070000000203E0000F33F0000F03F0000E63F3C
:10608000008003400000F83F0000F0BF56660000AB
:1060900014660000B26500007A6500002DE9F04D3D
:1060A0009446CCF1000423F000464CEA0404524F1D
:1060B00046EAD4749A46884621F00042BC4206D88B
:1060C000454240EA050442EAD474BC4204D9BDE822
:1060D000F04D6246FFF7ABBEAAF14055A5F17F65D2
:1060E00055EA0C040BD0022404EAAA74434DDFF8ED
:1060F00010E144EAD87452EA000B04D00CE0BDE889
:10610000F04DFFF7BBBE002C14BF012CBDE8F08D95
:10611000022C30D0032C32D056EA0C0B0AD0BE42EF
:1061200020D1BA4209D126F0804622F0804233467F
:10613000114617E000291ADB25E0DFF8C8B0FB4460
:10614000002C04BFDBE90001BDE8F08D012C02BF8B
:10615000DBE9000181F00041BDE8F08D022C0AD09E
:10616000032C0CD0BA4212D1B8F1000F0BDA23483D
:106170002549BDE8F08D28462449BDE8F08D284624
:106180007146BDE8F08D1D482149BDE8F08D921B98
:1061900012153C2AC4BF19481D490EDCBAF1000F84
:1061A000BEBF12F13C0F0020014606DB6246FDF740
:1061B000D0F921F00041FFF761FE002C08BFBDE8D7
:1061C000F08D012C04BF81F00041BDE8F08D114A33
:1061D000114B022C07D0FDF744F92A46BDE8F04DDB
:1061E0000A4BFDF73EB9FDF73CF92A46BDE8F04DF4
:1061F000064BFDF739B900000000F07F182D44541C
:10620000FB2109C03E650000FB21F9BFFB210940CD
:10621000FB21F93F075C143326A6A13C00B5244BB3
:1062200021F0004287B09A42DCBF0022134629DDEC
:10623000204B9A4208D140B94FF00100FFF718FEF9
:10624000FFF7F7FD07B000BD03DBFFF7EDFD07B07B
:1062500000BD02AAFFF7DAFA10F0030104BF0DF146
:10626000080C9CE80F000DD0012001290ED0022956
:1062700014D00DF1080C00909CE80F00FFF75EFDB4
:1062800007B000BDFFF786FC07B000BD0DF1080C9C
:1062900000909CE80F00FFF751FD05E00DF1080CA0
:1062A0009CE80F00FFF776FC07B081F0004100BDCD
:1062B000FB21E93F0000F07F4FF0E020006920F073
:1062C00004004FF0E021086142F22830486108469E
:1062D000006940F003000861704710B5044603E010
:1062E0004FF47A7000F005F8201EA4F10104F7D1F4
:1062F00010BD10B5034600F031F8044600BF00F0B1
:106300002DF8001B9842FAD310BD000010B50028EC
:1063100021D0114B0022001F196803E0814203D8ED
:106320000A4649680029F9D152B11368841A9C427F
:1063300004D1006818441060104602E0506000E08C
:10634000186039B102680B1A934203D10B681A44E2
:1063500002604968416010BD080200204FF0E02053
:1063600040694FF0E0218969401A4FF47A7148433F
:106370004FF0E0214969B0FBF1F00449096801EBF5
:106380004102C2EBC11100EBC100704704000020C4
:1063900000B591B001210820FEF7FAFDC020ADF84C
:1063A00040001C208DF8430003208DF8420010A906
:1063B0002B48FDF7B1FC01214805FEF7D9FD29481E
:1063C0000C900020ADF834004FF48040ADF836005A
:1063D0000020ADF838004FF48060ADF83A000001BD
:1063E000ADF83C000CA92048FDF7BAFD0121084694
:1063F000FEF7AEFD4FF48060049010200390002063
:106400000B901A48029000200890802006902020CF
:1064100009901548103001900020079005904FF426
:1064200040500A9001A91248FDF7F9FB0122022110
:106430000F48FDF7EBFB10208DF8000001208DF8D0
:10644000030002208DF801008DF802006846FDF778
:10645000E7FF01210648FDF7B7FB11B000BD0000C2
:10646000000C0140801A0600005400401406002071
:106470006C0002402DE9F04704460D4616461F46C3
:10648000DDE908892248007801283FD19F2C01DDF1
:106490009F2000E0204604464F2D01DD4F2000E004
:1064A00028460546A019A02802DDC4F1A00000E09E
:1064B0003046C6B2E819502802DDC5F1500000E0B0
:1064C0003846C7B2E819401EC3B2A019401EC2B276
:1064D0002946204600F0BAFB04210E48FDF7A9FC2E
:1064E00006FB07F24B4610214046FDF7B9FB08B901
:1064F000BDE8F08708210748FDF799FC0122022139
:106500000548FEF7F2FF00200149087000BFEFE7E1
:106510000801002000080140003001402DE9F04151
:1065200004460D4616461F46DDF8188023480078BD
:10653000012840D19F2C01DD9F2000E02046044629
:106540004F2D01DD4F2000E028460546A019A02868
:1065500002DDC4F1A00000E03046C6B2E8195028C0
:1065600002DDC5F1500000E03846C7B2E819401E10
:10657000C3B2A019401EC2B22946204600F066FBF5
:1065800004210F48FDF755FC06FB07F0420080236D
:1065900008214046FDF764FB08B9BDE8F0810821F9
:1065A0000748FDF744FC012202210648FEF79DFF43
:1065B00000200249087000BFEFE70000080100203A
:1065C00000080140003001402DE9F04F87B005463A
:1065D0000E4614461F46DDE9108A4FF0000901A857
:1065E000FDF78AFCDDE90101CDE9030131462846CA
:1065F000FFF732F80020FEF7D3FFB8F5B47F01DDD6
:106600004FF4B4780020FEF7F9FF3219294601A8AB
:10661000FDF73CFCDDE90101CDE90501DDE90501FE
:10662000FDF7F2FE3846FDF703F8814615E04846CF
:10663000FEF7E4FF3219294601A8FDF727FCDDE942
:106640000101CDE905015246DDE90501FDF7BAFE7C
:106650000C494846FCF79CFD81464046FCF7E8FFA4
:1066600083464946FDF788F8E1D32819524631465A
:10667000FDF7A8FEDDE90301FDF7C6FE07B0BDE8A2
:10668000F08F00000000A0402DE9F04706460F46BD
:10669000904699460025444633E0391B70194A4616
:1066A00000F017FA391B701B4A4600F012FA39192C
:1066B000701B4A4600F00DFA391970194A4600F06D
:1066C00008FA791930194A4600F003FA791B301993
:1066D0004A4600F0FEF9791B301B4A4600F0F9F9F2
:1066E0007919301B4A4600F0F4F96D1C05FB05F0E2
:1066F00004FB040008FB180ABAF1000F01DD641E58
:106700006D1E6000604308FB08F18842C5DABDE8F1
:10671000F0872DE9F84F06460F4691469846C9F195
:10672000010A4FF0010B4FEA49004042009000245B
:106730004D4640E0BAF1000F05DB6D1E0098801C4D
:10674000009000988244641C0BF1020BDA4408F0BC
:10675000010048B1391B701B0A9A00F0BAF9791B85
:10676000301B0A9A00F0B5F908F0020048B1791B15
:1067700030190A9A00F0ADF9391B70190A9A00F025
:10678000A8F908F0040048B1791930190A9A00F004
:10679000A0F9391970190A9A00F09BF908F008005D
:1067A00048B13919701B0A9A00F093F97919301B16
:1067B0000A9A00F08EF9AC42BCDBBDE8F88F00000D
:1067C0002DE9FF4F99B006460F4698461B9800FBEF
:1067D00000F908FB08FA4FEA490017904FEA4A000F
:1067E0001690002544460020159017986043149099
:1067F00039197019269A00F06CF93919701B269A0C
:1068000000F067F9391B7019269A00F062F9391BFC
:10681000701B269A00F05DF94846FCF717FF00222E
:106820005E4BCDE90C01FCF722FECDE9100109FB1E
:1068300018A0FCF70BFFCDE90E01DDE91023FCF7F2
:106840006FFDCDE91201FCF73FFF83462AE06D1C86
:10685000DDE9150108441590BBF1000F03DA159826
:10686000504483440AE0641E17991498401A149007
:1068700015980AEB00011498081A83443919701905
:10688000269A00F026F93919701B269A00F021F992
:10689000391B7019269A00F01CF9391B701B269AB7
:1068A00000F017F9DDE914108842D0DB09FB0AF08B
:1068B000FCF7CCFECDE91001611E01FB09F1621E5F
:1068C00001FB02F0FCF7C2FECDE90C012846FCF703
:1068D000BDFE0022324BCDE90401FCF721FDCDE9DC
:1068E00008012846FCF7B2FE00222D4BCDE900013D
:1068F000FCF716FDCDE904015046FCF7A7FECDE9F3
:106900000201DDE90423FCF7B2FDCDE90601DDE972
:106910000823FCF7ACFDCDE90A01DDE90C23FCF707
:10692000FFFCCDE90E01DDE91023FCF79AFDCDE96E
:106930001201FCF7C9FE83462BE0641E17991498D8
:10694000401A1490BBF1000F04DD1498A9EB00006D
:1069500083440AE06D1CDDE9150108441590149884
:10696000A9EB000115980844834439197019269A37
:1069700000F0AFF83919701B269A00F0AAF8391BFD
:106980007019269A00F0A5F8391B701B269A00F0A2
:10699000A0F8002CD1DC1DB0BDE8F08F0000D03F86
:1069A0000000E03F2DE9F0470446884616461F46A2
:1069B00004EB0609002C01DA002000E02046054621
:1069C00005E03A464146284600F083F86D1CB9F1CF
:1069D000A00F01DA484600E0A020A842F1DCBDE8A3
:1069E000F0872DE9F04780460C4616461F4604EB1B
:1069F0000609002C01DA002000E02046054605E0EB
:106A00003A462946404600F064F86D1CB9F1500F33
:106A100001DA484600E05020A842F1DCBDE8F087EA
:106A20002DE9FF4F85B081468A464FF0000B0020CC
:106A300001900798A0EB09050898A0EB0A061FFA39
:106A400089F003901FFA8AF00290002D01DD0127E2
:106A500005E00DB9002702E04FF0FF376D42002E30
:106A600002DD4FF0010806E016B94FF0000802E021
:106A70004FF0FF387642B54201DD2C4600E0344647
:106A8000002004901EE0129ADDE9021000F021F8C7
:106A9000AB44019830440190A34505DDABEB040BFA
:106AA0000398384480B203900198A04206DD019813
:106AB000001B01900298404480B202900498401C50
:106AC00080B20490611C04988842DCDD09B0BDE806
:106AD000F08F70B504460D4616469F2C01DC4F2DF5
:106AE00000DD70BDE9B2E0B201231A4600F0AEF855
:106AF0003046FDF703FC00BFF3E72DE9F8430446F9
:106B00000D4616461F46DDF82080A2192B46294661
:106B10002046CDF80080FFF783FFEB19A219E91991
:106B20002046CDF80080FFF77BFFEB19224629466F
:106B30002046CDF80080FFF773FFEB19A219A019CA
:106B40002946CDF80080FFF76BFFBDE8F8832DE9FB
:106B5000F84305460E4617469846DDE908496000A9
:106B6000B84202DC6000404501DDBDE8F883022147
:106B700001FB147228194B463146FFF713FF02231D
:106B800003FB147206EB0803591E28194B46FFF746
:106B900009FF022000FB148231194B462846FFF7FB
:106BA00020FF022303FB14823119EB19581E4B46B8
:106BB000FFF717FF3119281901232246CDF800905D
:106BC000FFF7A7FD3119EA19121B501E02232246B6
:106BD000CDF80090FFF79DFD06EB0802121B511E39
:106BE000EA19121B501E04232246CDF80090FFF72D
:106BF00090FD06EB0802121B511E2819082322469D
:106C0000CDF80090FFF785FD00BFAEE72DE9F84F06
:106C100005460E4617469846DDE90A9A0C9C4346FF
:106C20003A46314628460094FFF7FAFE53464A4654
:106C3000414638460094FFF7F3FE33462A46514654
:106C400048460094FFF7ECFEBDE8F88F2DE9F041CF
:106C500007460E4614461D469F2C01DD9F2000E08E
:106C6000204604464F2D01DD4F2000E02846054612
:106C70002A210020FDF76CFB3846FDF73FFB20463C
:106C8000FDF73CFB2B210020FDF762FB06F118000D
:106C9000FDF734FB05F11800FDF730FB2C21002037
:106CA000FDF756FBBDE8F08110B5044614B1012C88
:106CB0000AD104E028210020FDF74AFB05E0292144
:106CC0000020FDF745FB00E000BF00BF10BD000045
:106CD0000EB50020029001F07FFB0221A748FDF7CE
:106CE000A6F89620FFF7F9FA0221A448FDF7A1F8CB
:106CF0009620FFF7F2FA01210020FDF729FB9620EC
:106D0000FFF7EBFA11210020FDF722FB9620FFF799
:106D1000E4FAB1210020FDF71BFB05210120FDF75E
:106D200017FB3C210120FDF713FB3C210120FDF75F
:106D30000FFBB2210020FDF70BFB05210120FDF721
:106D400007FB3C210120FDF703FB3C210120FDF75F
:106D5000FFFAB3210020FDF7FBFA05210120FDF722
:106D6000F7FA3C210120FDF7F3FA3C210120FDF761
:106D7000EFFA05210120FDF7EBFA3C210120FDF798
:106D8000E7FA3C210120FDF7E3FAC0210020FDF7DE
:106D9000DFFAAB210120FDF7DBFA0B210120FDF723
:106DA000D7FA04210120FDF7D3FAC1210020FDF715
:106DB000CFFAC5210120FDF7CBFAC2210020FDF753
:106DC000C7FA0D210120FDF7C3FA00210120FDF7CC
:106DD000BFFAC3210020FDF7BBFA8D210120FDF78A
:106DE000B7FA6A210120FDF7B3FAC4210020FDF7AC
:106DF000AFFA8D210120FDF7ABFAEE210120FDF75E
:106E0000A7FAC5210020FDF7A3FA0F210120FDF705
:106E10009FFAE0210020FDF79BFA07210120FDF7F2
:106E200097FA0E210120FDF793FA08210120FDF7C2
:106E30008FFA07210120FDF78BFA10210120FDF7C1
:106E400087FA07210120FDF783FA02210120FDF7CF
:106E50007FFA07210120FDF77BFA09210120FDF7C8
:106E600077FA0F210120FDF773FA25210120FDF7A4
:106E70006FFA36210120FDF76BFA00210120FDF7A2
:106E800067FA08210120FDF763FA04210120FDF7CC
:106E90005FFA10210120FDF75BFAE1210020FDF7E8
:106EA00057FA0A210120FDF753FA0D210120FDF7C1
:106EB0004FFA08210120FDF74BFA07210120FDF7C9
:106EC00047FA0F210120FDF743FA07210120FDF7C2
:106ED0003FFA02210120FDF73BFA07210120FDF7CF
:106EE00037FA09210120FDF733FA0F210120FDF7C0
:106EF0002FFA25210120FDF72BFA35210120FDF77E
:106F000027FA00210120FDF723FA09210120FDF7CE
:106F10001FFA04210120FDF71BFA10210120FDF7C3
:106F200017FAFC210020FDF713FA80210120FDF75C
:106F30000FFA3A210020FDF70BFA05210120FDF799
:106F400007FA36210020FDF703FA60210120FDF742
:106F5000FFF910210948FCF76CFF0120FFF7A4FEA0
:106F6000002002A95023A022CDE900100146FFF71E
:106F700081FA3220FFF7B1F90EBD00000008014090
:106F80002DE9F84F80460E4617461C46B34620466C
:106F9000E31704EB5373DB1021464FEAE47C04EB68
:106FA0005C7C4FEAEC0CA4EBCC0CBCF1000F02D0E3
:106FB0004FF0010C01E04FF0000C6344224604EB5B
:106FC000D27C4FEA6C0C03FB0CF3DBB20093A7F10D
:106FD0002000C7B200254FE00C2C07D107EB47007B
:106FE000284901EB800010F8059013E0102C05D122
:106FF000254800EB071010F805900BE0182C07D17E
:1070000007EBC700214901EB800010F8059001E073
:10701000BDE8F88F4FF0000A28E009F0800028B1A1
:10702000314640460A9AFFF754FD04E000223146FB
:107030004046FFF74EFD4FEA49604FEA1069701C69
:1070400086B2B8F1800F00DDE2E7402E00DDDFE719
:107050000BEB0400B04205DC5E4608F101001FFAAC
:1070600080F806E00AF1010000F0FF0ABAF1080F0B
:10707000D3DB00BF681CC5B200988542ACDB00BF03
:10708000C6E7000008A100087CA500086CAB00085A
:107090002DE9FF4F89B017469846DDF85890CDF896
:1070A000208000250020059000214046FCF764FB6D
:1070B00001D8404601E088F000408046B9F1030F56
:1070C00001DD032000E0484681464046FCF7E8FA2F
:1070D00083465846FCF7B5FA41460490FCF7ADF8F4
:1070E0000790CDF818B004E0681CC5B20A20BBFBBD
:1070F000F0FBBBF1000FF7D115B909F1030001E076
:10710000A81C484400F0FF0ACDF814A0DDF814A034
:10711000504600F0C1FC044651462046FCF72DF8CD
:1071200040460899FCF71EFB02D02D20207001E09C
:107130002B2020706EB20DE00A210698B0FBF1F210
:1071400001FB12003030A0550698B0FBF1F006901C
:10715000701E46B2002EEFDC15B9012530206055B7
:10716000B9F1000F20D02E21681C2154002619E00F
:1071700018490798FCF764F807900798FCF790FA0D
:107180003030C1B2A81C304421540798FCF788FA6B
:107190000390FCF756FA04900799FCF74EF8079015
:1071A000701C46B24E45E3DB1798CDE90074049796
:1071B000029007EBD770401000FB0AF082B23B460A
:1071C000DDE9090100F008F82046FFF79FF80DB04F
:1071D000BDE8F08F000020412DE9F84F04460D4630
:1071E00016461F46DDE90B9BDDF82880A246A01954
:1071F00086B2781987B2802E01DD802000E030460B
:107200000646402F01DD402000E03846074619E0E1
:10721000B44203DB544605EB080085B2BD4200DBF7
:1072200018E0CDF800B099F80020434629462046E2
:10723000FFF7A6FE404608EBD07104EB61018CB26B
:1072400009F1010999F800007E2803DC99F8000093
:107250002028DDDA00BFBDE8F88F00002DE9FF41EE
:1072600005460020039003A95023A022CDE9001079
:107270000146FFF7FFF80A20FFF72FF8B44828234C
:107280001A46002100900846FFF748F94FF47A703B
:10729000FFF723F8002003A95023A022CDE9001016
:1072A0000146FFF7E7F80A20FFF717F8A9A00C211D
:1072B0005023A022CDE90105009100210846FFF7E7
:1072C0008BFFA4A010215023A022CDE9010500913D
:1072D0000C210020FFF780FF9EA018215023A02240
:1072E000CDE9010500911C210020FFF775FF4FF447
:1072F000FA60FEF7F2FF002003A95023A022CDE997
:1073000000100146FFF7B6F80A20FEF7E6FF00245A
:107310000CE004EB84004200502300210846009555
:10732000FFF77EFB6420FEF7D8FF641C282CF0DBFF
:1073300000240EE004EB84007F21A1EB40025023E7
:1073400000217F200095FFF76BFB6420FEF7C5FF4F
:10735000641C282CEEDB4FF47A70FEF7BEFF002091
:1073600003A95023A022CDE900100146FFF782F8BF
:107370000A20FEF7B2FF00261CE0002417E004EB11
:10738000060C4FEA4C0CCCF13F0304EB060C4FF01B
:107390007F08A8EB8C02A11904EB060C4FEA4C0005
:1073A0000095FFF7AAFB6420FEF797FFA41C1F2C93
:1073B000E5DB761C022EE0DB4FF47A70FEF78DFFE2
:1073C000002003A95023A022CDE900100146FFF7B9
:1073D00051F80A20FEF781FF002410E00A20610026
:1073E000C1F140038021A1EB8402CDE900056000DA
:1073F0002146FFF7ACFB6420FEF76FFFA41C1F2C97
:10740000ECDB4FF47A70FEF768FF002003A95023ED
:10741000A022CDE900100146FFF72CF80A20FEF764
:107420005CFF1F233F22194610460095FFF7C8F95D
:107430004FF47A70FEF751FF002003A95023A022D9
:10744000CDE900100146FFF715F80A20FEF745FFC9
:107450001F23102219463F200095FFF7B1F94FF482
:107460007A70FEF73AFF002003A95023A022CDE94D
:1074700000100146FEF7FEFF0A20FEF72EFF2B4606
:107480001E221F213F20FFF7FFF84FF47A70FEF70E
:1074900024FF002003A95023A022CDE900100146BB
:1074A000FEF7E8FF0A20FEF718FF32203C211E23DA
:1074B0006422CDE9010500910A210520FFF7A6FB12
:1074C0004FF47A70FEF709FF002003A95023A02291
:1074D000CDE900100146FEF7CDFF0A20FEF7FDFEC4
:1074E000FEF73CFF074600240BE000231E221F216D
:1074F0003F20CDE90045FFF767F80120FEF7EDFEDC
:10750000641CB4F5B47FF0DBFEF728FFC71B3846D8
:10751000FCF78EF880460020434610220146CDE954
:107520000005FFF7B5FD4FF47A70FEF7D6FE002494
:1075300006E0284600F02CF83220FEF7CEFE641C50
:10754000282CF6DB4FF4FA60FEF7C7FEBDE8FF819A
:10755000C8B800084142430008B501211020FDF7DA
:1075600017FD10208DF803004002ADF80000032045
:107570008DF8020069460548FCF7CEFB00224FF467
:1075800000510248FCF757FC08BD00000010014004
:107590002DE9F84F05463A483A4908603A480068EC
:1075A000FCF7B1F80646394A394BFBF7B9FE80467D
:1075B000FCF7BCF834490860314836490860084691
:1075C000006800902F4803682F4833490268334809
:1075D00000F02AF900244EE0314A601C52F82000E5
:1075E000401E00EB40002C4A02EB800041684FF047
:1075F0008440FBF7CDFD8246FCF739F80646284A61
:10760000601C52F82000401E00EB4000224A52F855
:1076100020104FF08540FBF7BBFD8246FCF727F8B2
:1076200007461F4850F82400401E00EB40001A4A4D
:1076300002EB800041684FF08440FBF7A9FD8246D1
:10764000FCF715F88046164850F82400401E00EB61
:107650004000114A52F820104FF08540FBF798FD8A
:107660008246FCF704F8814633463A464146009587
:10767000FFF7D6F9A41C182CAEDBBDE8F88F00008C
:107680009A99993EE8010020E40100209A9999997D
:107690009999C93FEC010020740A002024010020C0
:1076A000840100202DE9FE4F05460F4616460024B2
:1076B00023E004EB440206EB8202A9689068FBF722
:1076C000BFFD814604EB440206EB82026968506804
:1076D000FBF7B6FD824604EB440256F82200296807
:1076E000FBF7AEFD83465146FBF752FD8046494607
:1076F000FBF74EFD4DF82400641C032CD9DB002061
:1077000004E05DF8201047F82010401C0328F8DB47
:107710003846BDE8FE8F00002DE9F84339483A4964
:1077200008603A480068FBF7EEFF0646384A394BD6
:10773000FBF7F6FD0446FBF7F9FF344908603148D2
:10774000354908600846006800902F4803682F48B4
:1077500032490268324800F031FD00244DE0314AE0
:10776000601C52F82000401E00EB40002B4A02EB48
:10777000800041684FF08440FBF70AFD8146FBF72B
:1077800076FF0546274A601C52F82000401E00EB99
:107790004000224A52F820104FF08540FBF7F8FCD9
:1077A0008146FBF764FF06461E4850F82400401E41
:1077B00000EB4000194A02EB800041684FF0844022
:1077C000FBF7E6FC8146FBF752FF0746154850F8E9
:1077D0002400401E00EB4000104A52F820104FF0E9
:1077E0008540FBF7D5FC8146FBF741FF80462B46E1
:1077F00032463946FDF78EF8A41C182CAFDBBDE8E5
:10780000F88300009A99993EF0000020EC000020D7
:107810009A9999999999C93FF4000020140A002077
:107820002C0000208C0000202DE9F04F9BB0054675
:107830000C46164699462422594912A8FBF784FCA7
:107840002498FBF760FF8246FEF7E8FC0746FBF74B
:107850006DFF12902498FBF756FF824600F06CFDF6
:1078600081F000410746FBF761FF13902498FBF776
:107870004AFF824600F060FD0746FBF757FF159070
:107880002498FBF740FF0746FEF7C8FC8246FBF74B
:107890004DFF169024224249243109A8FBF754FCDD
:1078A0004846FBF730FF8246FEF7B8FC0746FBF779
:1078B0003DFF0D904846FBF726FF074600F03CFDD4
:1078C00081F000418246FBF731FF0E904846FBF7FE
:1078D0001AFF824600F030FD0746FBF727FF1090A5
:1078E0004846FBF710FF0746FEF798FC8246FBF779
:1078F0001DFF119024222A4948316846FBF724FCD9
:107900003046FBF700FF0746FEF788FC8246FBF790
:107910000DFF00903046FBF7F6FE824600F00CFDAE
:107920000746FBF703FF02903046FBF7ECFE0746E5
:1079300000F002FD81F000418246FBF7F7FE069061
:107940003046FBF7E0FE8246FEF768FC0746FBF791
:10795000EDFE089000271DE007EB470204EB8201D3
:1079600007EB470205EB820012AAFFF79BFE824657
:1079700007EB470004EB800109AA5046FFF792FE8F
:10798000804607EB470004EB80016A464046FFF75C
:1079900089FE7F1C082FDFDB1BB0BDE8F08F0000E5
:1079A00048C500081CB54FF440514FF00060FCF78B
:1079B0006FFDFEF781FCFFF7CFFDFFF789F900F0BF
:1079C00027F9FCF70AF8FEF7C9FC304908804FF6A2
:1079D000FF70FFF743FC00F003FBFEF7BFFC2B49F1
:1079E0000988401A2949088008460088FBF729FEC3
:1079F000044601202346102214210090084600F07E
:107A00000FFAFDF701F941F28830FEF766FC3CE021
:107A1000FCF73CF800201D49088032E000201C499A
:107A2000088025E000211A480088184A1288082397
:107A300003FB0200174A02EB4000144ACDE90001A3
:107A4000127802EB82025206110E114A127802EBF2
:107A500082025206100E0A231A46FEF70BFD4FF45F
:107A6000FA70FEF746FC0A480088401C0849088066
:107A7000074800880828D5DB04480088401C0349D3
:107A80000880024800880828C8DBC1E70000002001
:107A900002000020D40A0020F0B50B30154D20F074
:107AA00007010024144A0FE003688B420BD38B427A
:107AB00005D95E1A43184768C3E9006700E04368C8
:107AC000136002C004E0021D10680028ECD12046BB
:107AD000002802D1286808B10020F0BD064A0748F6
:107AE0001060074A121A22F00702C0E900240120A0
:107AF0002860D7E70C020020080200205C0B002061
:107B0000580D00202DE9FE4F05460F46164600246D
:107B100023E004EB440206EB8202A9689068FBF7BD
:107B20008FFB814604EB440206EB820269685068D1
:107B3000FBF786FB824604EB440256F822002968D4
:107B4000FBF77EFB83465146FBF722FB8046494606
:107B5000FBF71EFB4DF82400641C032CD9DB00202E
:107B600004E05DF8201047F82010401C0328F8DBE3
:107B70003846BDE8FE8F00002DE9F84F0446A146C7
:107B8000A2460E4850444FEA500A54462146484601
:107B9000FBF788FB21460090FBF7FAFA8346FBF7D8
:107BA000B2FD07460022064BFBF761FC0546FBF7DA
:107BB000BDFD04462046BDE8F88F000062CF763F49
:107BC0000000E03F2DE9F84F0446A146A2460E48CA
:107BD00050444FEA500A544621464846FBF762FBA0
:107BE00021460090FBF7D4FA8346FBF78CFD07464D
:107BF0000022064BFBF73BFC0546FBF797FD0446CE
:107C00002046BDE8F88F000062CF763F0000E03FDD
:107C100010B5FEF7BDFB3220FEF75FFBFCF7DDFF82
:107C2000FF20FDF731F80120FDF787F90120FCF76F
:107C3000CDFF00210846FDF730F80020FDF739F8A8
:107C40000020FDF70AF80020FDF749F87F21002009
:107C5000FCF7F6FF07210020FDF734F80020FDF7C0
:107C600045F8FCF7C5FFFCF743FCFCF7CDFF1420FB
:107C7000FEF733FB10BD000010B5044600BF2248DC
:107C8000008800F002000028F9D11F481838008849
:107C900040F480701C491839088000BF1B491A48FD
:107CA0001838FCF73BF90028F8D078201649083935
:107CB000088000BF164914481838FCF72FF900282F
:107CC000F8D0002010490839088000BF1049891CED
:107CD0000D481838FCF722F90028F7D00A48083870
:107CE000048000BF0A49891C07481838FCF716F9B8
:107CF0000028F7D004481838008840F40070024982
:107D00001839088010BD000018540040010003001D
:107D1000820007002DE9F84F80460E4617461C46A4
:107D2000B3462046E31704EB5373DB1021464FEABA
:107D3000E47C04EB5C7C4FEAEC0CA4EBCC0CBCF1D7
:107D4000000F02D04FF0010C01E04FF0000C634433
:107D5000224604EBD27C4FEA6C0C03FB0CF3DBB243
:107D60000093A7F12000C7B200254DE00C2C07D1ED
:107D700007EB4700274901EB800010F8059013E05E
:107D8000102C05D1244800EB071010F805900BE0EB
:107D9000182C07D107EBC700204901EB800010F831
:107DA000059001E0BDE8F88F4FF0000A26E009F0E9
:107DB000800020B131464046FCF7FEFD03E031462D
:107DC0004046FCF76FFB4FEA49604FEA1069701CB0
:107DD00086B2B8F1800F00DDE4E7402E00DDE1E778
:107DE0000BEB0400B04205DC5E4608F101001FFA0F
:107DF00080F806E00AF1010000F0FF0ABAF1080F6E
:107E0000D5DB00BF681CC5B200988542AEDB00BF61
:107E1000C8E70000DC84000850890008408F000893
:107E20002DE9FF4F87B017469846DDF85090CDF802
:107E3000188000250020039000214046FBF79CFCA1
:107E400001D8404601E088F000408046B9F1030FB8
:107E500001DD032000E0484681464046FBF720FC58
:107E600083465846FBF7EDFB41460290FBF7E5F9E8
:107E70000590CDF810B004E0681CC5B20A20BBFB29
:107E8000F0FBBBF1000FF7D115B909F1030001E0D8
:107E9000A81C484400F0FF0ACDF80CA0DDF80CA0A7
:107EA0005046FFF7F9FD044651462046FBF765F9B9
:107EB00040460699FBF756FC02D02D20207001E0C9
:107EC0002B2020706EB20DE00A210498B0FBF1F275
:107ED00001FB12003030A0550498B0FBF1F0049083
:107EE000701E46B2002EEFDC15B90125302060551A
:107EF000B9F1000F20D02E21681C2154002619E072
:107F000017490598FBF79CF905900598FBF7C8FB06
:107F10003030C1B2A81C304421540598FBF7C0FB97
:107F20000190FBF78EFB02900599FBF786F905900F
:107F3000701C46B24E45E3DBCDE9007407EBD77009
:107F4000401000FB0AF082B23B460297DDE90701D0
:107F500000F008F82046FEF7D9F90BB0BDE8F08F25
:107F6000000020412DE9F04704460D4616461F4605
:107F7000DDE90889A246A01986B2781987B2802E59
:107F800001DD802000E030460646402F01DD402024
:107F900000E03846074617E0B44203DB544605EBE1
:107FA000080085B2BD4200DB16E099F80020434688
:107FB00029462046FFF7AEFE404608EBD07104EBA1
:107FC00061018CB209F1010999F800007E2803DCF7
:107FD00099F800002028DFDA00BFBDE8F087000034
:107FE0002DE9FC41FCF784FA00240DE004EB840049
:107FF00042003F2300210846FCF78CFCFCF704FEFE
:108000006420FEF76AF9641C282CEFDB00240FE0E3
:1080100004EB84007F21A1EB40023F2300217F205D
:10802000FCF778FCFCF7F0FD6420FEF756F9641CC1
:10803000282CEDDB4FF47A70FEF74FF9FCF758FA75
:10804000002518E0002413E067197F00C7F13F0303
:1080500067194FF07F0CACEB870261196719780044
:10806000FCF7D0FCFCF7D0FD6420FEF736F9A41C29
:108070001F2CE9DB6D1C022DE4DB4FF47A70FEF758
:108080002CF9FCF735FA002413E00A206100C1F155
:108090004001CBB28021A1EB8401CAB20090600004
:1080A0002146FCF7CDFCFCF7AFFD6420FEF715F987
:1080B000A41C1F2CE9DB4FF47A70FEF70EF9FCF7D5
:1080C00017FA1F233F2219461046FCF703FBFCF763
:1080D0009BFD4FF47A70FEF700F9FCF709FA1F23B5
:1080E000102219463F20FCF7F5FAFCF78DFD4FF4FE
:1080F0007A70FEF7F2F8FCF7FBF91E221F213F20F1
:10810000FCF75EFAFCF780FD4FF47A70FEF7E5F8B5
:10811000FCF7EEF932203C211E236422CDE9001049
:108120000A210520FCF7E2FCFCF76EFD4FF47A70A3
:10813000FEF7D3F8FCF7DCF91F48FCF773FD4FF4AA
:108140007A70FEF7CAF8FCF7D3F9FEF707F906468E
:1081500000240EE000231E221F213F200094FCF784
:10816000D1F9FCF751FDFCF7C3F90120FEF7B5F892
:10817000641CB4F5B47FEDDBFEF7F0F8861B3046E7
:10818000FBF756FA074600203B46102201460090B6
:10819000FFF746FEFCF738FD4FF4FA60FEF79DF856
:1081A000FCF7ABFDFCF7AAFEFCF78DFE4FF47A70EE
:1081B000FEF793F8BDE8FC819C9C00082DE9F04F88
:1081C0009BB005460C46164699462422594912A8EA
:1081D000FAF7BAFF2498FBF796FA8246FEF71EF8E4
:1081E0000746FBF7A3FA12902498FBF78CFA824615
:1081F00000F0A2F881F000410746FBF797FA1390D0
:108200002498FBF780FA824600F096F80746FBF7C1
:108210008DFA15902498FBF776FA0746FDF7FEFFD6
:108220008246FBF783FA169024224249243109A89A
:10823000FAF78AFF4846FBF766FA8246FDF7EEFF3B
:108240000746FBF773FA0D904846FBF75CFA0746C2
:1082500000F072F881F000418246FBF767FA0E9059
:108260004846FBF750FA824600F066F80746FBF7EF
:108270005DFA10904846FBF746FA0746FDF7CEFF39
:108280008246FBF753FA119024222A494831684666
:10829000FAF75AFF3046FBF736FA0746FDF7BEFFFE
:1082A0008246FBF743FA00903046FBF72CFA8246F1
:1082B00000F042F80746FBF739FA02903046FBF728
:1082C00022FA074600F038F881F000418246FBF7B9
:1082D0002DFA06903046FBF716FA8246FDF79EFF10
:1082E0000746FBF723FA089000271DE007EB47023B
:1082F00004EB820107EB470205EB820012AAFFF7AD
:1083000001FC824607EB470004EB800109AA5046B6
:10831000FFF7F8FB804607EB470004EB80016A4655
:108320004046FFF7EFFB7F1C082FDFDB1BB0BDE8EB
:10833000F08F00009CA0000800B5254B21F0004202
:1083400087B09A4203DC0022134600922BE0214BB7
:108350009A4208D140B94FF00100FDF789FDFDF7C1
:1083600068FD07B000BD03DBFDF75EFD07B000BD93
:1083700002AAFDF74BFA10F003014FF001000DD0F7
:10838000012914D002291AD00DF1080C9CE80F0025
:10839000FDF700FC07B081F0004100BD0DF1080CB5
:1083A00000909CE80F00FDF7C9FC07B000BD0DF17F
:1083B000080C9CE80F00FDF7EDFB07B000BD0DF1C8
:1083C000080C00909CE80F00FDF7B8FCE2E7000005
:1083D000FB21E93F0000F07F00B593B001210420AC
:1083E000FCF7D6FDA020ADF8480003208DF84A0028
:1083F00018208DF84B0012A93548FBF78DFC1E2084
:10840000ADF8480010208DF84B0012A93048FBF75A
:1084100083FC01210803FCF7BBFD0020ADF8400000
:108420000120ADF83C000220ADF83A000720ADF87D
:1084300044000020ADF838004FF44040ADF834005F
:108440000020ADF842004FF48270ADF836004FF4D2
:108450000070ADF83E000DA91E48FDF75AF8012145
:108460001C48FDF736F801210846FCF771FD002095
:1084700005901020049000200C9003900990079024
:108480000A9014480C3002900020089006904FF497
:1084900040500B9002A91048FBF7C1FB01220221BA
:1084A0000D48FBF7B3FB0D208DF8040001208DF87B
:1084B000070002208DF805008DF8060001A8FBF7E3
:1084C000AFFF01210448FBF77FFB13B000BD0000A4
:1084D0000008014000300140300002400000000070
:1084E0000000000000000000000000003F4000000D
:1084F000000000000000300040003000400000009C
:1085000009000BC03D000BC03D00090018C024400D
:108510007FE0224031800000180024C01B000D8045
:108520003240018003801C4027401C8007400040EF
:1085300010006000000000000000000000000000CB
:1085400000001F80204040200000402020401F806D
:1085500000000000090006001F800600090000005E
:10856000040004003F8004000400000000100060CC
:1085700000000000000000000400040004000400EB
:1085800004000000000000400000000000000000A7
:10859000002001C006003800400000001F8020407D
:1085A000204020401F800000000010403FC00040DD
:1085B0000000000018C02140224024401840000064
:1085C00010802040244024401B80000002000D0049
:1085D00011003FC0014000003C8024402440244062
:1085E000238000001F80244024403440038000008A
:1085F0003000200027C03800200000001B802440ED
:10860000244024401B8000001C0022C02240224045
:108610001F80000000000000084000000000000073
:1086200000000000046000000000000000000400E2
:108630000A001100208040400900090009000900DB
:108640000900000000004040208011000A000400E2
:108650001800200023402400180000001F80204044
:10866000274029401F400000004007C039000F008C
:1086700001C0004020403FC0244024401B80000037
:108680001F802040204020403080000020403FC01C
:10869000204020401F80000020403FC024402E404A
:1086A00030C0000020403FC024402E0030000000B9
:1086B0000F001080204022403380020020403FC045
:1086C000040004003FC02040204020403FC0204024
:1086D000204000000060202020203FC0200020001B
:1086E00020403FC024400B0030C0204020403FC00D
:1086F00020400040004000C03FC03C0003C03C00A0
:108700003FC0000020403FC00C4023003FC020007D
:108710001F802040204020401F80000020403FC09C
:1087200024402400180000001F802140214020E048
:108730001FA0000020403FC02440260019C0004078
:1087400018C02440244022403180000030002040E6
:108750003FC020403000000020003F80004000402B
:108760003F80200020003E0001C0070038002000AC
:10877000380007C03C0007C038000000204039C066
:10878000060039C0204000002000384007C03840B3
:1087900020000000304021C02640384020C00000AA
:1087A000000000007FE0402040200000000070003A
:1087B0000C000380004000000000402040207FE0CB
:1087C0000000000000002000400020000000000029
:1087D0000010001000100010001000100000000039
:1087E000400000000000000000000280054005403D
:1087F00003C0004020003FC004400440038000004C
:108800000000038004400440064000000000038094
:10881000044024403FC00040000003800540054064
:1088200003400000000004401FC0244024402000FA
:10883000000002E0055005500650042020403FC0D3
:108840000440040003C000400000044027C0004072
:108850000000000000100010041027E000000000DD
:1088600020403FC00140070004C004402040204099
:108870003FC000400040000007C0040007C00400E3
:1088800003C00000044007C00440040003C00040CF
:10889000000003800440044003800000041007F03F
:1088A0000450044003800000000003800440045092
:1088B00007F00010044007C002400400040000005C
:1088C000000006400540054004C000000000040010
:1088D0001F80044000400000040007800040044066
:1088E00007C000400400070004C001800600040027
:1088F000060001C0070001C006000000044006C0D9
:10890000010006C0044000000410071004E00180CC
:10891000060004000000044005C0064004400000BA
:108920000000000004007BE0402000000000000088
:108930000000FFF000000000000040207BE0040089
:1089400000000000400080004000200020004000A7
:108950000000000000000000000000000000000017
:108960000000000000001FCC000C00000000000010
:1089700000000800300060000800300060000000C7
:10898000022003FC1E20022003FC1E200220000007
:1089900000000E1811043FFF10840C780000000046
:1089A0000F0010840F3800C007781884007800008A
:1089B00000780F8410C411240E9800E4008400088D
:1089C00008006800700000000000000000000000C7
:1089D00000000000000007E018182004400200001A
:1089E000000040022004181807E00000000000000A
:1089F0000240024001800FF001800240024000006E
:108A00000080008000800FF800800080008000005F
:108A10000001000D000E000000000000000000003A
:108A200000000080008000800080008000800080C6
:108A30000000000C000C000000000000000000001E
:108A400000000006001800600180060018002000E9
:108A5000000007F0080810041004080807F00000E0
:108A60000000080408041FFC0004000400000000CB
:108A700000000E0C10141024104411840E0C000081
:108A800000000C1810041104110412880C7000006E
:108A9000000000E00320042408241FFC0024000040
:108AA00000001F9810841104110410881070000039
:108AB000000007F0088811041104188800700000F5
:108AC00000001C00100010FC13001C00100000002F
:108AD00000000E3811441084108411440E38000038
